:100000000C945A000C9477000C9477000C947700B1
:100010000C9477000C9477000C9477000C94770084
:100020000C9477000C9477000C9477000C94770074
:100030000C9477000C9477000C9477000C94770064
:100040000C9477000C9477000C9477000C94770054
:100050000C9477000C9477000C9477000C94770044
:100060000C9477000C9477000C9477000C94770034
:100070000C9477000C9477000C9477000C94770024
:100080000C9477000C9477000C9477000C94770014
:100090000C9477000C9477000C9477000C94770004
:1000A0000C9477000C9477000C9477000C947700F4
:1000B0000C94770011241FBECFEFD8E0DEBFCDBF78
:1000C00011E0A0E0B1E0EAE5F8E002C005900D9291
:1000D000A230B107D9F721E0A2E0B1E001C01D9242
:1000E000AB30B207E1F70E943E010C942B040C9454
:1000F0000000EAE7F0E0808187688083ECE7F0E0C9
:100100008081806C80830895EAE7F0E080818064DC
:100110008083808186FDFDCF809178009091790069
:10012000089521982298299A2A9A0895199909C020
:1001300080910001909101010196909301018093BB
:1001400000011A9909C08091000190910101019765
:100150009093010180930001809100019091010131
:10016000909308018093070108955B9A95E89A950A
:10017000F1F700009BB19F709BB99BB18295807F86
:10018000892B8BB95B9885E88A95F1F70000089573
:10019000CF93C82F611102C05A9801C05A9A8C2F70
:1001A00082958F700E94B5008C2F0E94B500CF9170
:1001B000089561E00E94C800089590E4699F800D51
:1001C000112460E080680E94C80008958FE295E7DE
:1001D0000197F1F700C0000083E00E94B5008FE3B3
:1001E0009FE10197F1F700C0000083E00E94B50095
:1001F00087EC90E00197F1F700C0000083E00E94D7
:10020000B5008FEC97E00197F1F700C0000082E0A5
:100210000E94B5008FEC97E00197F1F700C0000055
:1002200060E088E20E94C8008FEC97E00197F1F748
:1002300000C0000060E08CE00E94C8008FEC97E0F6
:100240000197F1F700C0000060E086E00E94C8005E
:100250008FEC97E00197F1F700C00000089560E08F
:1002600081E00E94C80087EB9BE00197F1F700C096
:10027000000008951BB88FEF8AB908950E943A01D3
:100280000E94E6000E9479000E942F010E94500205
:100290000E9491000F2EF8EEEF2EF3E0FF2EF02DCE
:1002A00004E610E0CAE0D0E00F2EFDECDF2EF02DCA
:1002B0000E94840090930301809302010E949600A3
:1002C00060E070E080E00E94DD0082E50E94D900DD
:1002D00085E40E94D90081E40E94D9008CE40E9448
:1002E000D90080E20E94D90080910201909103011F
:1002F000B7010E94030480E3860F0E94D900809119
:10030000020190910301B7010E940304B8010E9409
:10031000030480E3860F0E94D9008091020190912E
:100320000301B8010E940304BE010E94030480E39C
:10033000860F0E94D9008091020190910301BE01B5
:100340000E940304805D0E94D90083E40E94D900CA
:1003500060E070E08CE00E94DD006091020170912D
:100360000301072E000C880B990B0E940A0320E062
:1003700030E048EC53E40E9467024B015C010E94AC
:10038000D90280E3860F0E94D9008EE20E94D90034
:1003900020E030E040E251E4C501B4010E94960340
:1003A0000E94D9026D9D912D112496959695969552
:1003B000990F892F880F880F980F862F891B805DD2
:1003C0000E94D90020E030E048EC52E4C501B401BD
:1003D0000E9496030E94D9026D9D912D112496953D
:1003E00096959695990F892F880F880F980F862FCD
:1003F000891B805D0E94D90061E070E080E00E946E
:10040000DD0083E50E94D90085E40E94D90084E5DF
:100410000E94D90080E20E94D90080E20E94D900A7
:100420008091070190910801B7010E94030480E3C5
:10043000860F0E94D9008091070190910801B701B1
:100440000E940304B8010E94030480E3860F0E9407
:10045000D9008091070190910801B8010E9403041E
:10046000BE010E94030480E3860F0E94D9008091A0
:10047000070190910801BE010E940304805D0E9463
:10048000D90083E40E94D9000E9452022FE788E33A
:1004900091E0215080409040E1F700C0000008CF7B
:1004A000209A089580910201909103018F3F93401B
:1004B0000CF4289A209102013091030180910701E8
:1004C00090910801821793070CF4289808950E94D0
:1004D0007B020C945C030E94550358F00E944E036B
:1004E00040F029F45F3F29F00C94450351110C941E
:1004F00090030C944B030E946D0368F39923B1F3AE
:10050000552391F3951B550BBB27AA276217730739
:10051000840738F09F5F5F4F220F331F441FAA1FCD
:10052000A9F335D00E2E3AF0E0E832D09150504089
:10053000E695001CCAF72BD0FE2F29D0660F771F37
:10054000881FBB1F261737074807AB07B0E809F01D
:10055000BB0B802DBF01FF2793585F4F3AF09E3FA2
:10056000510578F00C9445030C9490035F3FE4F33D
:10057000983ED4F3869577956795B795F7959F5FE5
:10058000C9F7880F911D9695879597F90895E1E031
:10059000660F771F881FBB1F621773078407BA0790
:1005A00020F0621B730B840BBA0BEE1F88F7E095EB
:1005B00008950E94750388F09F5798F0B92F9927E6
:1005C000B751B0F0E1F0660F771F881F991F1AF03E
:1005D000BA95C9F714C0B13091F00E948F03B1E011
:1005E00008950C948F03672F782F8827B85F39F010
:1005F000B93FCCF3869577956795B395D9F73EF4D7
:1006000090958095709561957F4F8F4F9F4F08957E
:10061000E89409C097FB3EF490958095709561959C
:100620007F4F8F4F9F4F9923A9F0F92F96E9BB2752
:100630009395F695879577956795B795F111F8CFCE
:10064000FAF4BB0F11F460FF1BC06F5F7F4F8F4F39
:100650009F4F16C0882311F096E911C0772321F02F
:100660009EE8872F762F05C0662371F096E8862FC7
:1006700070E060E02AF09A95660F771F881FDAF71E
:10068000880F9695879597F9089597F99F6780E861
:1006900070E060E008959FEF80EC089500240A94D4
:1006A0001616170618060906089500240A9412164D
:1006B0001306140605060895092E0394000C11F480
:1006C000882352F0BB0F40F4BF2B11F460FF04C02D
:1006D0006F5F7F4F8F4F9F4F089557FD9058440F86
:1006E000551F59F05F3F71F04795880F97FB991F91
:1006F00061F09F3F79F0879508951216130614064E
:10070000551FF2CF4695F1DF08C0161617061806DA
:10071000991FF1CF86957105610508940895E894B5
:10072000BB2766277727CB0197F908950E94A90375
:100730000C945C030E944E0338F00E94550320F095
:10074000952311F00C9445030C944B0311240C9445
:1007500090030E946D0370F3959FC1F3950F50E0D5
:10076000551F629FF001729FBB27F00DB11D639F63
:10077000AA27F00DB11DAA1F649F6627B00DA11D09
:10078000661F829F2227B00DA11D621F739FB00DAF
:10079000A11D621F839FA00D611D221F749F33271F
:1007A000A00D611D231F849F600D211D822F762FB8
:1007B0006A2F11249F5750409AF0F1F088234AF095
:1007C000EE0FFF1FBB1F661F771F881F9150504001
:1007D000A9F79E3F510580F00C9445030C949003BB
:1007E0005F3FE4F3983ED4F3869577956795B79588
:1007F000F795E7959F5FC1F7FE2B880F911D9695A2
:10080000879597F9089597FB072E16F4009407D063
:1008100077FD09D00E94170407FC05D03EF490959F
:1008200081959F4F0895709561957F4F0895AA1BFC
:10083000BB1B51E107C0AA1FBB1FA617B70710F0CB
:10084000A61BB70B881F991F5A95A9F780959095FD
:0A085000BC01CD010895F894FFCF1C
:02085A00F401A7
:00000001FF
